{
  "contractName": "Bank",
  "abi": [
    {
      "stateMutability": "payable",
      "type": "fallback",
      "payable": true
    },
    {
      "inputs": [
        {
          "internalType": "address",
          "name": "",
          "type": "address"
        }
      ],
      "name": "balances",
      "outputs": [
        {
          "internalType": "uint256",
          "name": "",
          "type": "uint256"
        }
      ],
      "stateMutability": "view",
      "type": "function",
      "constant": true
    },
    {
      "stateMutability": "payable",
      "type": "receive",
      "payable": true
    },
    {
      "inputs": [],
      "name": "getBalance",
      "outputs": [
        {
          "internalType": "uint256",
          "name": "",
          "type": "uint256"
        }
      ],
      "stateMutability": "view",
      "type": "function",
      "constant": true
    },
    {
      "inputs": [
        {
          "internalType": "address",
          "name": "_receiver",
          "type": "address"
        }
      ],
      "name": "deposit",
      "outputs": [],
      "stateMutability": "payable",
      "type": "function",
      "payable": true
    },
    {
      "inputs": [
        {
          "internalType": "uint256",
          "name": "_amount",
          "type": "uint256"
        }
      ],
      "name": "withdraw",
      "outputs": [],
      "stateMutability": "nonpayable",
      "type": "function"
    },
    {
      "inputs": [
        {
          "internalType": "uint256",
          "name": "_amount",
          "type": "uint256"
        },
        {
          "internalType": "address",
          "name": "_receiver",
          "type": "address"
        }
      ],
      "name": "transfer",
      "outputs": [],
      "stateMutability": "nonpayable",
      "type": "function"
    }
  ],
  "bytecode": "0x608060405234801561001057600080fd5b50610929806100206000396000f3fe60806040526004361061004e5760003560e01c806312065fe01461010157806327e235e31461012c5780632e1a7d4d14610169578063b7760c8f14610192578063f340fa01146101bb576100aa565b366100aa57346000803373ffffffffffffffffffffffffffffffffffffffff1673ffffffffffffffffffffffffffffffffffffffff16815260200190815260200160002060008282546100a1919061057b565b92505081905550005b346000803373ffffffffffffffffffffffffffffffffffffffff1673ffffffffffffffffffffffffffffffffffffffff16815260200190815260200160002060008282546100f8919061057b565b92505081905550005b34801561010d57600080fd5b506101166101d7565b60405161012391906105e0565b60405180910390f35b34801561013857600080fd5b50610153600480360381019061014e919061065e565b61021d565b60405161016091906105e0565b60405180910390f35b34801561017557600080fd5b50610190600480360381019061018b91906106b7565b610235565b005b34801561019e57600080fd5b506101b960048036038101906101b491906106e4565b6103bb565b005b6101d560048036038101906101d0919061065e565b6104ea565b005b60008060003373ffffffffffffffffffffffffffffffffffffffff1673ffffffffffffffffffffffffffffffffffffffff16815260200190815260200160002054905090565b60006020528060005260406000206000915090505481565b806000803373ffffffffffffffffffffffffffffffffffffffff1673ffffffffffffffffffffffffffffffffffffffff1681526020019081526020016000205410156102b6576040517f08c379a00000000000000000000000000000000000000000000000000000000081526004016102ad90610781565b60405180910390fd5b806000803373ffffffffffffffffffffffffffffffffffffffff1673ffffffffffffffffffffffffffffffffffffffff168152602001908152602001600020600082825461030491906107a1565b9250508190555060003373ffffffffffffffffffffffffffffffffffffffff168260405161033190610806565b60006040518083038185875af1925050503d806000811461036e576040519150601f19603f3d011682016040523d82523d6000602084013e610373565b606091505b50509050806103b7576040517f08c379a00000000000000000000000000000000000000000000000000000000081526004016103ae90610867565b60405180910390fd5b5050565b816000803373ffffffffffffffffffffffffffffffffffffffff1673ffffffffffffffffffffffffffffffffffffffff16815260200190815260200160002054101561043c576040517f08c379a0000000000000000000000000000000000000000000000000000000008152600401610433906108d3565b60405180910390fd5b816000803373ffffffffffffffffffffffffffffffffffffffff1673ffffffffffffffffffffffffffffffffffffffff168152602001908152602001600020600082825461048a91906107a1565b92505081905550816000808373ffffffffffffffffffffffffffffffffffffffff1673ffffffffffffffffffffffffffffffffffffffff16815260200190815260200160002060008282546104df919061057b565b925050819055505050565b346000808373ffffffffffffffffffffffffffffffffffffffff1673ffffffffffffffffffffffffffffffffffffffff1681526020019081526020016000206000828254610538919061057b565b9250508190555050565b6000819050919050565b7f4e487b7100000000000000000000000000000000000000000000000000000000600052601160045260246000fd5b600061058682610542565b915061059183610542565b9250827fffffffffffffffffffffffffffffffffffffffffffffffffffffffffffffffff038211156105c6576105c561054c565b5b828201905092915050565b6105da81610542565b82525050565b60006020820190506105f560008301846105d1565b92915050565b600080fd5b600073ffffffffffffffffffffffffffffffffffffffff82169050919050565b600061062b82610600565b9050919050565b61063b81610620565b811461064657600080fd5b50565b60008135905061065881610632565b92915050565b600060208284031215610674576106736105fb565b5b600061068284828501610649565b91505092915050565b61069481610542565b811461069f57600080fd5b50565b6000813590506106b18161068b565b92915050565b6000602082840312156106cd576106cc6105fb565b5b60006106db848285016106a2565b91505092915050565b600080604083850312156106fb576106fa6105fb565b5b6000610709858286016106a2565b925050602061071a85828601610649565b9150509250929050565b600082825260208201905092915050565b7f496e73756666696369656e742066756e64730000000000000000000000000000600082015250565b600061076b601283610724565b915061077682610735565b602082019050919050565b6000602082019050818103600083015261079a8161075e565b9050919050565b60006107ac82610542565b91506107b783610542565b9250828210156107ca576107c961054c565b5b828203905092915050565b600081905092915050565b50565b60006107f06000836107d5565b91506107fb826107e0565b600082019050919050565b6000610811826107e3565b9150819050919050565b7f4661696c656420746f2073656e642066756e6473000000000000000000000000600082015250565b6000610851601483610724565b915061085c8261081b565b602082019050919050565b6000602082019050818103600083015261088081610844565b9050919050565b7f496e737566666963656e742066756e6473000000000000000000000000000000600082015250565b60006108bd601183610724565b91506108c882610887565b602082019050919050565b600060208201905081810360008301526108ec816108b0565b905091905056fea2646970667358221220a6f95a49e693b27f8f61f69719e7f89cdfc562824fafa4ba1feb5dfe04f8766e64736f6c63430008090033",
  "immutableReferences": {},
  "source": "// SPDX-License-Identifier: UNLICENSED\r\npragma solidity ^0.8.9;\r\n/*\r\n    In public functions, Solidity immediately copies array arguments to memory, \r\n    while external functions can read directly from calldata. Memory allocation is expensive, \r\n    whereas reading from calldata is cheap. \r\n    Therefore we gonna use external ones as we dont want to spent a whole tranfer of funds in gas\r\n    (Proof of work PTSD)\r\n\r\n    https://ethereum.stackexchange.com/questions/19380/external-vs-public-best-practices\r\n*/\r\n\r\ncontract Bank {\r\n    //getBalance wouldnt work on thirdweb, made this public\r\n    mapping(address=>uint) public balances;\r\n\r\n    fallback() external payable {\r\n        balances[msg.sender]+=msg.value;\r\n    }\r\n\r\n    receive() external payable {\r\n    balances[msg.sender] += msg.value;\r\n    }\r\n\r\n    function getBalance() external view returns (uint) {\r\n        return balances[msg.sender];\r\n    }\r\n\r\n    function deposit(address _receiver) payable external {\r\n        balances[_receiver]+=msg.value;\r\n    }\r\n\r\n    function withdraw(uint _amount) external {\r\n/*      We gotta verify if sender has enough money to send\r\n        Then update balances and then transfer\r\n        Then we zero'ing sender's balance\r\n        so we avoid reentrancy exploit\r\n        https://medium.com/coinmonks/reentrancy-exploit-ac5417086750\r\n        https://consensys.io/diligence/blog/2019/09/stop-using-soliditys-transfer-now/\r\n        */\r\n\r\n        require (balances[msg.sender] >= _amount, \"Insufficient funds\");\r\n        balances[msg.sender]-=_amount;\r\n        (bool success, ) = msg.sender.call{value:_amount}(\"\");\r\n        require(success, \"Failed to send funds\");\r\n    }\r\n\r\n    function transfer(uint _amount, address _receiver) external{\r\n        require(balances[msg.sender]>=_amount, \"Insufficent funds\");\r\n        balances[msg.sender]-=_amount;\r\n        balances[_receiver]+=_amount;\r\n    }\r\n}",
  "sourcePath": "C:\\Users\\kabil\\OneDrive\\Desktop\\CNS4504 Group Project\\contracts\\Bank.sol",
  "compiler": {
    "name": "solc",
    "version": "0.8.9+commit.e5eed63a.Emscripten.clang"
  },
  "schemaVersion": "3.4.16",
  "updatedAt": "2024-06-23T01:31:24.852Z",
  "networkType": "ethereum",
  "devdoc": {
    "kind": "dev",
    "methods": {},
    "version": 1
  },
  "userdoc": {
    "kind": "user",
    "methods": {},
    "version": 1
  }
}